:10098100015700015C01015B23015A1401591E0149
:020991005814F8
:0B0ED300EF1FAC0670011E4C70F622F1
:100DA900D3EF9400EE940040147D6E7C00ED1D702D
:0D0DB900011CED4C70F7EF1F70E61E80E38B
:010DC600220A
:100C40008F3E8D3F120CFF7FA0120BA9120D47AFF4
:100C50003E120BA9120D47AF3F120BA9120D4712FE
:090C60000DE37F0A7E00020DA9DC
:020BE3008F3E43
:100BE500E4F53F120CFF7FA0120BA9120D47AF3E93
:100BF500120BA9120D47120CFF7FA1120BA9120DA2
:0D0C050047E4FF120B308F3F120DE3AF3FAD
:010C120022BF
:100CFF00D2A07F017E00120ED3D2A17F017E0012FF
:100D0F000ED3C2A07F017E00120ED3C2A17F017E3F
:040D1F0000020ED3ED
:100DE300C2A07F017E00120ED3D2A17F017E00122A
:0B0DF3000ED3D2A07F017E00020ED3C1
:100E1900C2A1C2A07F017E00120ED3D2A17F017EA2
:070E290000120ED3C2A1224A
:100E3000C2A1D2A07F017E00120ED3D2A17F017E7B
:070E400000120ED3C2A12233
:100D4700E4F540D2A17F01FE120ED330A00F05407B
:100D5700E540D3946440F4120DE37F0122C2A17FE2
:010D6700008B
:010D68002268
:020BA9008F407B
:100BAB00E4F541C2A1F541E5405480D394004004E3
:100BBB00D2A08002C2A0E54025E0F540D2A17F0182
:100BCB007E00120ED3C2A17F017E00120ED305410F
:070BDB00E541C3940840D07E
:010BE20022F0
:020B30008F40F4
:100B3200E4F541F542F541C2A17F017E00120ED3D8
:100B4200D2A17F017E00120ED3E54225E0F54230AC
:100B5200A00205420541E541C3940840DAE5407030
:0B0B620005120E308003120E19AF4286
:010B6D002265
:100B6E007F147E00120DA9E4FF120BE38F3C7F0170
:100B7E00120BE38F3DE53CB4FF1AE53DB4FF157D46
:100B8E001EE4FF120C407D147F01120C4075591E9D
:0A0B9E0075581422853C59853D5816
:010BA800222A
:0E0EB700AD59E4FF120C40AD587F01020C4013
:100E8600C2B77F4B7E00120ED3D2B77F027E00021E
:020E96000ED379
:100A6400E4F54330B712E543C39414500B05437FB8
:100A7400017E00120ED380EBE543C3941440037F40
:100A84000122E4F54320B712E543C39414500B0547
:100A9400437F017E00120ED380EBE543C3941440E0
:060AA400037F01227F0028
:010AAA002229
:070EE800120E86120A6422BB
:020AF1008F4331
:100AF300E4F544F545F544E5435401F545E543C3C1
:100B030013F543E545600FC2B70000D2B77F067EF9
:100B130000120ED3800DC2B77F067E00120ED3D211
:0C0B2300B700000544E544C3940840CB33
:010B2F0022A3
:100D6900E4F545C2B70000D2B7000030B7057545B4
:0F0D7900018003E4F5457F057E00120ED3AF45E0
:010D88002248
:100C6900E4F543FFF544F543120D69EFC43333331B
:100C79005480FEE544C3134EF5440543E543C3944C
:050C89000840E5AF4446
:010C8E002243
:100E9800120E86120A647FCC120AF17F44020AF10C
:10089200E4FFF53CF53DF53E120E98120E86120A63
:1008A200647FCC120AF17FBE120AF1120C698F3CEE
:1008B200120C69EFFE7C00E4253CF53EEC3EF53D72
:1008C20054F8FEEEB4F821E53EF4FFE53DF4FEEF08
:1008D2002401F53EE43EF53DFCAD3EE4120111E497
:1008E200FBFA798078BD800FAC3DAD3EE412011178
:1008F200E4FBFA7980783D1200068F428E418D40EA
:0A0902008C3FAF42AE41AD40AC3F68
:01090C0022C8
:10099300070880828486888A8C070F8183858789EC
:0B09A3008B8D07164751130307062138
:04090D008F3D8D3E4F
:10091100E4F53FC2B57F01FE120ED3C2B67F017E60
:1009210000120ED3D2B57F017E00120ED3E4F53F43
:10093100E53D1392B4E53DC313F53DD2B67F017E8B
:1009410000120ED3C2B67F017E00120ED3053FE521
:100951003FC3940840DAE4F53FE53E1392B4E53E27
:10096100C313F53ED2B67F017E00120ED3C2B67F0D
:0F097100017E00120ED3053FE53FC3940840DA24
:010980002254
:0206D8008F3D54
:1006DA00E4F53EF53FF540C2B57F01FE120ED3C2E6
:1006EA00B67F017E00120ED3D2B57F017E00120EB4
:1006FA00D3E4F53EE53D1392B4E53DC313F53DD28F
:10070A00B67F017E00120ED3C2B67F017E00120EA2
:10071A00D3053EE53EC3940840DAE4F53EA2B4E4CC
:10072A0033F53FC43333335480FFE540C3134FF5E9
:10073A0040D2B67F017E00120ED3C2B67F017E0080
:10074A00120ED3053EE53EC3940840D1D2B67F01CE
:10075A007E00120ED3C2B47F017E00120ED3D2B431
:09076A007F017E00120ED3AF40A6
:010773002263
:100C1300E4F53CFD7F8E12090DE4F53C7408253C98
:100C2300F8E6FF7416253CF8E6FD12090D053CE5D0
:0D0C33003CC3940740E67D807F8E02090DD2
:100D8900E4F53CF53C740F253CF8E6FF1206D874EF
:0F0D990016253CF8A607053CE53CC3940740E649
:010DA8002228
:0F0EA800EFC4540F75F00AA4FEEF540F2EFF2273
:100E7300EF75F00A84C454F0FEEF75F00A84E5F0D0
:030E83004EFF22FD
:100CB5008F40C2A6C2A5C2A77F017E00120ED385B2
:100CC50040807F017E00120DA9D2A77F017E001210
:050CD5000DA9C2A722D9
:100CDA008F40D2A6C2A5C2A77F017E00120ED3857D
:100CEA0040807F017E00120DA9D2A77F017E0012EB
:050CFA000DA9C2A722B4
:100DFE007F147E00120DA97F38120CB57F0C120CD9
:0B0E0E00B57F06120CB57F01020CB589
:050EEF007F01020CB5BB
:0E0EC500ED700543078080034307C0020CB5A3
:060C8F008B3C8A3D893E0A
:100C9500E4F53F120EC5AB3CAA3DA93E853F8275E2
:0F0CA50083001201CBFF6007120CDA053F80E7D6
:010CB400221D
:100D2300EB75F00A84F53CEB75F00A8485F03D120F
:100D33000EC5E53C60062430FF120CDAE53D243095
:040D4300FF020CDAC5
:0509AE00C100015D0025
:100E4700D288D2A8D2AFD2B2C200E4F55DF55EF582
:060E570061F560F55F2269
:030003000204DE16
:1004DE00C0E0C0F0C083C082C0D075D000C000C0E4
:0D04EE0001C002C003C004C005C006C00765
:1004FB0075210075220075230075240075250030C9
:10050B00B2030205FC7523037524E820B21EE52413
:10051B00452360187F017E00120ED3E5241524704D
:10052B00021523E524452370E20205FC20B20302E9
:10053B0005DD7523017524F430B21EE524452360D7
:10054B00187F017E00120ED3E524152470021523AB
:10055B00E524452370E20205FC7521007522007528
:10056B00230275245820B21DE524452360177F0113
:10057B007E00120ED3E524152470021523E52445C5
:10058B002370E2806C75230075241430B2127F0A3D
:10059B007E00120ED30525E525D3941440ED805132
:1005AB00745E2521F8C000E6C313D000F6E525C321
:1005BB0094084009745E2521F8E64480F675250001
:1005CB000522E522C3940840960521E521C3940436
:1005DB00408AE561F465606013752100745E252126
:1005EB00F876000521E521B404F2800585605DD223
:0105FB0000FF
:1005FC00D007D006D005D004D003D002D001D00053
:0B060C00D0D0D082D083D0F0D0E032FC
:090EDE00E4FF300004AF5DC20026
:010EE70022E8
:10061700120EDEEF70030206D7EF1202910685086D
:10062700064C0C06C00D06D416065F1806BB190645
:10063700951C06C74206CD4A06CA5206A55A066F3A
:100647005E000006D7E557640160030206D7E55947
:10065700C3943C507B055922E55764017072E559F4
:10066700D39558406B155922E55764017062755947
:100677001EE559D395585058E55914F55822E557B2
:100687006401704CE558C395595045055822E55704
:100697006401703CE558D394004035155822E5575E
:1006A7006401702C755814E558C395594022E558D4
:1006B70004F55922E4F5578003755701755C01224B
:1006C700020EF9020EFC7FBC7E02020E5D120EB70F
:0106D7002200
:0309B300011D0122
:100AAB00E51D6401702E30B10930B00630B2032061
:100ABB00B3227F327E00120ED3E4F51D20B1037FEB
:100ACB00012220B0037F022220B2037F032220B336
:100ADB00127F042230B10C30B00930B20630B303B0
:050AEB00751D017F00F4
:010AF00022E3
:100A1900120AABEF6044EF24FE60191460211460E0
:100A29002A24037035E557B40105E4F55780287584
:100A390057018023E559C39432501F05598009E5B0
:100A490058D3940040141558020EB775591E75589D
:0A0A590014120EB7E4F557755C01A6
:010A63002270
:050EF400C2A5C290221E
:100E5D008E3C8F3DD2A57FBC7E02120ED3C2A5AFB4
:060E6D003DAE3C020ED375
:030EF900D2902272
:030EFC00C290227F
:100DC70054494D453A0054454D503A004D4158203D
:0C0DD700543A0043004D494E20543A00AD
:1002B700752601120E47120DFE120EE8120B6E1272
:1002C7000C13120892120892120EF40526D3E52693
:1002D70094E8748094834003E4F526E52675F017C7
:1002E70084E5F07014120892E4FBFA792078411241
:1002F700000612014A8E298F2AAF267E007C017DD7
:100307002C1201F8ED4C7003120D89AB2AAA29C3F0
:10031700EA64809480500CC3E49BFBE49AFA752B43
:100327002D8003752B2B7C007D64AF03AE02120278
:100337004DEF2430F52C7C007D64AF03AE02120232
:100347004D7E007F0ACFCDCFCECCCE12024DEF240B
:1003570030F52D752E2EAE02AF037C007D641202A0
:100367004D7E007F0ACFCDCFCECCCE12024DED24ED
:1003770030F52FE4F530120A19120617E55CB401BF
:1003870006120EEFE4F55CE5576003020496AF161C
:10039700120EA88F31AF17120EA88F32AF18120E98
:1003A700A8EF75F00A842430F533EF75F00A84E579
:1003B700F02430F53475353AE53275F00A84243087
:1003C700F536E53275F00A84E5F02430F5377538EF
:1003D7003AE53175F00A842430F539E53175F00ACC
:1003E70084E5F02430F53AE4F53B7BFF7A0D79C7D5
:1003F700FDFF120C8F7B007A007933E4FD7F051235
:100407000C8F7BFF7A0D79CD7D01E4FF120C8F7B7A
:10041700007A00792B7D017F05120C8FE55975F065
:100427000AA4FFC3E52A9FE5F06480F8E529648004
:10043700984030120EF9C37458952AFF7402952913
:10044700FE7C007D0A12024D8E278F28C3E5289473
:100457000AE5279400500675270075280AAF28AECD
:1004670027801EE55875F00AA4FFD3E52A9FE5F01B
:100477006480F8E529648098500D120EFC7F0A7E8F
:1004870000120E5D0202D2120EFCC2A50202D27B3E
:10049700FF7A0D79D3E4FDFF120C8FAB59E4FD7F92
:1004A70006120D237BFF7A0D79DAE4FD7F09120C22
:1004B7008F7BFF7A0D79DC7D01E4FF120C8FAB583F
:1004C7007D017F06120D237BFF7A0D79DA7D017F8F
:0704D70009120C8F0202D292
:1009B60011463F065B4F666D7D077F6F777C395E1C
:0309C60079710044
:060774008B628A638964B8
:10077A00E4F565ED14F566F565E565C39408507B07
:10078A00E565B40800504D900798F82828730207C9
:10079A00B00207B40207B80207BC0207C00207C8C2
:1007AA000207D00207D8D2A4800ED2A48012D2A403
:1007BA008016D2A4801AC2A4D2A3D2A28016C2A43E
:1007CA00D2A3C2A2800EC2A4C2A3D2A28006C2A48D
:1007DA00C2A3C2A2C3E5659566FFE49400AB62AA10
:1007EA0063A9648F82F5831201CBF5807F647E0052
:0B07FA00120ED3E4F5800565020783B2
:0108050022D0
:0309C900011E010B
:1009CD00EF6003751E01E51E6401702E30B1093014
:1009DD00B00630B20320B3227FE87E03120ED3E4BB
:1009ED00F51E20B1037F012220B0037F022220B229
:1009FD00037F032220B3127F042230B10C30B009E3
:0B0A0D0030B20630B303751E017F00FD
:010A180022BB
:10000600EC4D6011E8497017ED33EC3304600DE4F4
:10001600FCFFFEFD22E933E8330470F80201B61254
:10002600018158046009E4CC248150062850090255
:1000360001C02840030201BDC0E0EB4A7044B9800C
:1000460006D0E0FB0201ACEF4E701CBD8008EBFF52
:10005600EAFEE9FD80EBE98DF0A4FEE5F00200EF93
:10006600E9CDF9EAFEEBFFEF89F0A4FCE5F0CE89D5
:10007600F0A42EFFE435F0CD89F0A42DFEE435F092
:100086008067EF4E7005BD80D780C3EF8BF0A4ACC0
:10009600F0EE8BF0A42CFCE435F0F8EF8AF0A42CFB
:1000A600E5F038FCE433CB8DF0A42CFCE5F03BF80E
:1000B600EE8AF0A42CFCE5F038F8E433CF89F0A4FE
:1000C6002CFCE5F038CF3400CE89F0A42FFFE5F004
:1000D6003EFEE433C98DF0A42EFEE5F039CD8AF05C
:1000E600A42FFFE5F03EFEE43DFD33D0E0FB5007D4
:1000F6000BBB000F0201C0EC2CFCEF33FFEE33FE0E
:06010600ED33FD0201983B
:10010C0075F020800E75F010800575F0087D007E6E
:10011C00007F003392D530D503120283EC334010AC
:10012C00EF33FFEE33FEED33FDEC33FCD5F0ED2277
:0E013C00E5F0247EA2D513CC92E7CDCEFF22B3
:10014A00EDD2E7CD33EC3392D524814006E4FFFEAD
:10015A00FDFC22FCE4CFCECDCC24E0501174FF800C
:10016A00EDC3CC13CCCD13CDCE13CECF13CF0470A9
:07017A00F030D5DE02028324
:10018100E9D2E7C933E833F892D5EDD2E7CD33ECC4
:0701910033FC5002B2D5223D
:10019800EC30E7100FBF000C0EBE00080DBD0004C8
:1001A8000BEB6014A2D5EB13FCED92E7FD2274FF74
:1001B800FCFDFEFF22E480F8A2D574FF13FC7D80CD
:0301C800E480EFE1
:03000000020806ED
:0C080600787FE4F6D8FD75816602084D8D
:1001CB00BB010CE58229F582E5833AF583E02250E9
:1001DB0006E92582F8E622BBFE06E92582F8E22233
:0D01EB00E58229F582E5833AF583E493224D
:1001F800BC000BBE0029EF8DF084FFADF022E4CCEB
:10020800F875F008EF2FFFEE33FEEC33FCEE9DECB3
:10021800984005FCEE9DFE0FD5F0E9E4CEFD22EDF9
:10022800F8F5F0EE8420D21CFEADF075F008EF2F43
:10023800FFED33FD4007985006D5F0F222C398FD34
:050248000FD5F0EA22D1
:10024D00C2D5EC30E709B2D5E4C39DFDE49CFCEECC
:10025D0030E715B2D5E4C39FFFE49EFE1201F8C34B
:10026D00E49DFDE49CFC80031201F830D507C3E446
:06027D009FFFE49EFE223B
:0E028300C3E49FFFE49EFEE49DFDE49CFC228C
:10029100D083D082F8E4937012740193700DA3A3FC
:1002A10093F8740193F5828883E473740293686010
:0602B100EFA3A3A380DF10
:100812000202B7E493A3F8E493A34003F68001F243
:1008220008DFF48029E493A3F85407240CC8C333E7
:10083200C4540F4420C8834004F456800146F6DFB6
:10084200E4800B0102040810204080900981E47EBC
:10085200019360BCA3FF543F30E509541FFEE493AB
:10086200A360010ECF54C025E060A840B8E493A372
:10087200FAE493A3F8E493A3C8C582C8CAC583CA9D
:10088200F0A3C8C582C8CAC583CADFE9DEE780BE55
:0109CC00002A
:00000001FF
